:100000000C94E0200C94B6200C9400000C9400009A
:100010000C9400000C9400000C9400000C94000060
:100020000C9400000C9400000C9400000C94000050
:100030000C9400000C9400000C9400000C94000040
:100040000C9400000C9468200C9400000C940000A8
:100050000C9400000C9400000C9400000C94C1203F
:100060000C9400000C9400000C9400000C94000010
:100070000C9400000C9400000C9400000C94000000
:100080000C9400000C9400000C9400000C940000F0
:100090000C9407250C9400000C9400000C940000B4
:1000A0000C9400000C9400000C9400000C940000D0
:1000B0000C9400000C9400000C9400000C940000C0
:1000C0000C9400000C9400000C9400000C940000B0
:1000D0000C9400000C9400000C9400000C940000A0
:0400E0000C9400007C
:1041C000BFEFBDBFB1E2BEBF0E9459252F923F9203
:1041D0004F925F926F9246DE21DD13DD23EA17E5F1
:1041E00003E00A95F1F71A95E1F72A95D1F7000057
:1041F00000915804013009F003C4B0E0B0935804B2
:1042000000DD00917E04013019F40C944E2146C06B
:10421000BFE72B2EB4E03B2E19DB10ED0AEC0A951C
:10422000F1F71A95E1F70000BBE74B2EB4E05B2EE7
:10423000B9EB2B2EB4E03B2EDCDD103009F400305E
:10424000B1F0B1E05B2E4424BFE52B2EB4E03B2E51
:104250009BDDB1E0B0937E0421E410EF04E30A9506
:10426000F1F71A95E1F72A95D1F7CBDC17C0B1E049
:104270005B2E4424BBE62B2EB4E03B2E85DDB0E064
:10428000B0937E0421E410EF04E30A95F1F71A9548
:10429000E1F72A95D1F7B5DC0C940821B0E05B2E4C
:1042A000B1E06B2E4424B9EB2B2EB4E03B2E57DD4E
:1042B00000913904013019F40C94A52146C0B0EFE7
:1042C0002B2EB2E03B2EC2DA10ED0AEC0A95F1F784
:1042D0001A95E1F70000BDEE4B2EB2E05B2EB9EB74
:1042E0002B2EB4E03B2E85DD103009F40030B1F008
:1042F000B1E05B2E4424B9E02B2EB3E03B2E44DD2D
:10430000B1E0B093390421E410EF04E30A95F1F72A
:104310001A95E1F72A95D1F774DC17C0B1E05B2E4E
:104320004424B7EF2B2EB2E03B2E2EDDB0E0B0934D
:10433000390421E410EF04E30A95F1F71A95E1F747
:104340002A95D1F75EDC0C945F21B0E05B2EB1E0E2
:104350006B2E4424B9EB2B2EB4E03B2E00DD0091F4
:10436000EC02013019F40C94FC2146C0B8EC2B2E61
:10437000B2E03B2E6BDA10ED0AEC0A95F1F71A95D4
:10438000E1F70000B5EC4B2EB2E05B2EB9EB2B2E23
:10439000B4E03B2E2EDD103009F40030B1F0B1E076
:1043A0005B2E4424BFED2B2EB2E03B2EEDDCB1E0C2
:1043B000B093EC0221E410EF04E30A95F1F71A95AB
:1043C000E1F72A95D1F71DDC17C0B1E05B2E44243C
:1043D000BEEC2B2EB2E03B2ED7DCB0E0B093EC026B
:1043E00021E410EF04E30A95F1F71A95E1F72A9515
:1043F000D1F707DC0C94B621B0E05B2EB1E06B2E58
:104400004424B9EB2B2EB4E03B2EA9DC00915D03D4
:10441000013019F40C94532246C0B1E52B2EB3E0C1
:104420003B2E14DA10ED0AEC0A95F1F71A95E1F734
:104430000000BFE64B2EB3E05B2EB9EB2B2EB4E0B1
:104440003B2ED7DC103009F40030B1F0B1E05B2E28
:104450004424BEE52B2EB3E03B2E96DCB1E0B093B6
:104460005D0321E410EF04E30A95F1F71A95E1F7F3
:104470002A95D1F7C6DB17C0B1E05B2E4424BCE31C
:104480002B2EB3E03B2E80DCB0E0B0935D0321E443
:1044900010EF04E30A95F1F71A95E1F72A95D1F7A1
:1044A000B0DB0C940D22B0E05B2EB1E06B2E442407
:1044B000B9EB2B2EB4E03B2E52DC009120030130EF
:1044C00019F40C94AA2246C0B7E12B2EB3E03B2E80
:1044D000BDD910ED0AEC0A95F1F71A95E1F7000045
:1044E000B2E34B2EB3E05B2EB9EB2B2EB4E03B2EA8
:1044F00080DC103009F40030C1F0B1E05B2E4424C0
:10450000B1E22B2EB3E03B2E3FDCB0E0B0932003B2
:1045100021E410EF04E30A95F1F71A95E1F72A95E3
:10452000D1F76FDB0C94642215C0B1E05B2E4424FC
:10453000B0EB2B2EB2E03B2E27DCB1E0B093200392
:1045400021E410EF04E30A95F1F71A95E1F72A95B3
:10455000D1F757DBB0E05B2EB1E06B2E4424B9EB12
:104560002B2EB4E03B2EFBDB00914202013019F40C
:104570000C94012346C0B7E32B2EB2E03B2E66D944
:1045800010ED0AEC0A95F1F71A95E1F70000B5E590
:104590004B2EB2E05B2EB9EB2B2EB4E03B2E29DC88
:1045A000103009F40030B1F0B1E05B2E4424B3E4E4
:1045B0002B2EB2E03B2EE8DBB1E0B093420221E4C7
:1045C00010EF04E30A95F1F71A95E1F72A95D1F770
:1045D00018DB17C0B1E05B2E4424B1E22B2EB2E011
:1045E0003B2ED2DBB0E0B093420221E410EF04E3B3
:1045F0000A95F1F71A95E1F72A95D1F702DB0C94A9
:10460000BB22B0E05B2EB1E06B2E4424B9EB2B2E25
:10461000B4E03B2EA4DB00910C02013019F40C94A1
:10462000582346C0B0E02B2EB2E03B2E0FD910ED40
:104630000AEC0A95F1F71A95E1F70000BEE14B2E5E
:10464000B2E05B2EB9EB2B2EB4E03B2ED2DB103068
:1046500009F40030B1F0B1E05B2E4424BDE02B2E14
:10466000B2E03B2E91DBB1E0B0930C0221E410EFFD
:1046700004E30A95F1F71A95E1F72A95D1F7C1DA23
:1046800017C0B1E05B2E4424BAE82B2EB2E03B2EDB
:104690007BDBB0E0B0930C0221E410EF04E30A9559
:1046A000F1F71A95E1F72A95D1F7ABDA0C941223BA
:1046B000B0E05B2EB1E06B2E4424B9EB2B2EB4E0BE
:1046C0003B2E4DDB00918902013019F40C94AF238D
:1046D00046C0B5EA2B2EB2E03B2EB8D810ED0AEC5E
:1046E0000A95F1F71A95E1F70000BFE94B2EB2E009
:1046F0005B2EB9EB2B2EB4E03B2E7BDB103009F4A4
:104700000030B1F0B1E05B2E4424BAE72B2EB2E0CA
:104710003B2E3ADBB1E0B093890221E410EF04E3D1
:104720000A95F1F71A95E1F72A95D1F76ADA17C0D9
:10473000B1E05B2E4424B9E52B2EB2E03B2E24DB06
:10474000B0E0B093890221E410EF04E30A95F1F799
:104750001A95E1F72A95D1F754DA0C946923B0E061
:104760005B2EB1E06B2E4424B9EB2B2EB4E03B2E34
:10477000F6DA00915802013019F40C94062446C070
:10478000BFE62B2EB2E03B2E61D810ED0AEC0A9565
:10479000F1F71A95E1F70000B8E64B2EB2E05B2E78
:1047A000B9EB2B2EB4E03B2E24DB103009F40030A3
:1047B000B1F0B1E05B2E4424B2E72B2EB3E03B2EE8
:1047C000E3DAB1E0B093580221E410EF04E30A9574
:1047D000F1F71A95E1F72A95D1F713DA17C0B1E08E
:1047E0005B2E4424B0ED2B2EB3E03B2ECDDAB0E0AF
:1047F000B093580221E410EF04E30A95F1F71A95FB
:10480000E1F72A95D1F7FDD90C94C0230091CF038D
:10481000013019F40C94532446C0B3EE2B2EB3E0B0
:104820003B2E14D810ED0AEC0A95F1F71A95E1F732
:104830000000B0EE4B2EB3E05B2EB9EB2B2EB4E0B4
:104840003B2ED7DA103009F40030B1F0B1E05B2E26
:104850004424B2EC2B2EB3E03B2E96DAB1E0B093B9
:10486000CF0321E410EF04E30A95F1F71A95E1F77D
:104870002A95D1F7C6D917C0B1E05B2E4424B7EA18
:104880002B2EB3E03B2E80DAB0E0B093CF0321E4CF
:1048900010EF04E30A95F1F71A95E1F72A95D1F79D
:1048A000B0D90C940D240091A603013019F40C9496
:1048B000A12447C0BBEB2B2EB3E03B2E0E94261C4D
:1048C00010ED0AEC0A95F1F71A95E1F70000B8EB44
:1048D0004B2EB3E05B2EB9EB2B2EB4E03B2E89DAE6
:1048E000103009F40030B1F0B1E05B2E4424B5E2A1
:1048F0002B2EB4E03B2E48DAB1E0B093A60321E4BE
:1049000010EF04E30A95F1F71A95E1F72A95D1F72C
:1049100078D917C0B1E05B2E4424B9E12B2EB4E066
:104920003B2E32DAB0E0B093A60321E410EF04E3AB
:104930000A95F1F71A95E1F72A95D1F762D90C9407
:104940005A2400913804013019F40C94F02448C022
:10495000BDE22B2EB4E03B2E0E94261C10ED0AEC8B
:104960000A95F1F71A95E1F70000B2E14B2EB4E099
:104970005B2EB9EB2B2EB4E03B2E3BDA103009F462
:104980000030B9F0EED8B1E05B2E4424BFEF2B2EFF
:10499000B3E03B2EF9D9B1E0B093380421E410EF35
:1049A00004E30A95F1F71A95E1F72A95D1F729D989
:1049B00017C0B1E05B2E4424BFEE2B2EB3E03B2E9C
:1049C000E3D9B0E0B093380421E410EF04E30A9592
:1049D000F1F71A95E1F72A95D1F713D90C94A82489
:1049E000B0E05B2EB1E06B2E4424B9EB2B2EB4E08B
:1049F0003B2EB5D90E94701C0E944C1C0E940019CD
:0E4A0000F7CB6F905F904F903F902F90FFCFBD
:103E6400B091B900BE7FB093B900B091B900BD7FE5
:103E7400B093B900B8E4B093B8000E947D16B09135
:103E8400C800B260B093C800B0E1B093CC00B0E019
:103E9400B093CD000E94A816B091C900B068B09349
:103EA400C900B0E0B4BDB0E0B5BDB0916E00BE7F56
:103EB400B0936E00B0E0B0938000BBE0B09381009B
:103EC400B9E0B0938900B4ECB0938800B0916F006E
:103ED400B260B0936F00BFB7B068BFBFB1B1B46098
:103EE400B1B9B1B1B260B1B9B1B1B860B1B9B1B140
:103EF400B061B1B9B1B1B062B1B9B1B1B064B1B985
:103F0400B1B1B068B1B9B2B1BB7FB2B9B2B1BD7F22
:103F1400B2B9B2B1B77FB2B9B2B1BF7EB2B9B2B1C0
:103F2400BF7DB2B9B2B1BF7BB2B9B2B1B068B2B9F8
:103F340000916900015000936900009169000150EB
:103F44000093690000916900015000936900009199
:103F540069000150009369000091690001500093C9
:103F640069000091690001500093690000916900A3
:103F740001500093690000916900015000936900A9
:103F8400009169000150009369000091690001509B
:103F94000093690000916900015000936900009149
:103FA4006900015000936900009169000150009379
:103FB4006900009169000150009369000091690053
:103FC4000150009369000091690001500093690059
:103FD400009169000150009369000091690001504B
:103FE40000936900009169000150009369000091F9
:103FF4006900015000936900009169000150009329
:104004006900009169000150009369000091690002
:104014000150009369000091690001500093690008
:1040240000916900015000936900009169000150FA
:1040340000936900009169000150009369000091A8
:1040440069000150009369000091690001500093D8
:1040540069000091690001500093690000916900B2
:1040640001500093690000916900015000936900B8
:1040740000916900015000936900009169000150AA
:104084000093690000916900015000936900009158
:104094006900015000936900009169000150009388
:1040A4006900009169000150009369000091690062
:1040B400015000936900B1E0B0936900B1E0BDBB69
:0C40C400B1E0BCBBB0E0B0936800089510
:0E2CFA00B0E3B093B900B4E0B093BC0008950D
:102D5000B9ECB0939304B8E0B0939404BDEFB09392
:102D60009104B8E1B0939204BFEFB0938F04BFEF2A
:102D7000B0939004BFEFB0938D04BFEFB0938E0477
:102D8000BAB1BB7FBAB9BAB1B860BAB90091C900DB
:0E2D900008610093C900B6E0B093CA00089530
:103C1C002F9210ED0AEC0A95F1F71A95E1F70000D6
:103C2C00B2B1BB7FB2B9B3E02B2E66D9B2B1B260E0
:103C3C00B2B912E009E00A95F1F71A95E1F7B2B1C1
:103C4C00BD7FB2B918E605EE0A95F1F71A95E1F7C2
:103C5C00B3E02B2E51D9B2B1B260B2B912E009E087
:103C6C000A95F1F71A95E1F7B2B1BD7FB2B915E13A
:103C7C0007EC0A95F1F71A95E1F7B3E02B2E3CD936
:103C8C00B2B1B260B2B912E009E00A95F1F71A9537
:103C9C00E1F7B2B1BD7FB2B915E007E20A95F1F7D1
:103CAC001A95E1F7B2E02B2E27D9B2B1B260B2B9B6
:103CBC0012E009E00A95F1F71A95E1F7B2B1BD7F70
:103CCC00B2B915E007E20A95F1F71A95E1F7B8E2F7
:103CDC002B2EEED815E107EC0A95F1F71A95E1F7C2
:103CEC00B8E22B2EE5D815E107EC0A95F1F71A95F9
:103CFC00E1F7BCE02B2EDCD815E107EC0A95F1F7C7
:103D0C001A95E1F7B6E02B2ED3D815E107EC0A95FE
:103D1C00F1F71A95E1F7B2E02B2ECAD815E107ECB2
:103D2C000A95F1F71A95E1F7B0E82B2EC1D815E1F9
:103D3C0007EC0A95F1F71A95E1F7B1E02B2EB8D8FC
:103D4C001AE20EE80A95F1F71A95E1F700002F90A8
:023D5C000895C8
:102F0400022D0695069506950170013021F4B2B1A3
:102F1400B064B2B903C0B2B1BF7BB2B9022D069599
:102F240006950170013021F4B2B1B062B2B903C0A8
:102F3400B2B1BF7DB2B9022D06950170013021F402
:102F4400B2B1B061B2B903C0B2B1BF7EB2B9022DA1
:102F54000170013021F4B2B1B860B2B903C0B2B1AA
:062F6400B77FB2B9089529
:102EBC00B2B1BB7FB2B9022D069506950695069563
:102ECC002F92202E19D02F90B2B1B260B2B90AEB6A
:102EDC000A95F1F700000000B2B1BD7FB2B90CD079
:102EEC00B2B1B260B2B90AEB0A95F1F7000000007A
:082EFC00B2B1BD7FB2B9089527
:103C02002F92B1E02B2E59D91AE20EE80A95F1F75C
:0A3C12001A95E1F700002F900895C5
:10384C00CF93DF93CDB7DEB72197CDBFDEBF2196E7
:10385C00B0E0B883F1010081102F012F003089F006
:10386C003F922F92202EBEDA2F903F9008810F5F4F
:10387C000883E02FF0E0E20DF31D0081102F012FE3
:0C388C00EDCFCDBFDEBFDF91CF910895DE
:0C2DF000E0919304F0919404099508957B
:0C11B4002EBCBDB5B7FD01C0FCCF0895F6
:10117000B091C000B5FD01C0FBCFB091C000B6FF7B
:1011800005C0B091C000B064B093C0002092C6000A
:021190000895C0
:10119200B091C800B5FD01C0FBCFB091C800B6FF49
:1011A20005C0B091C800B064B093C8002092CE00D0
:0211B20008959E
:103DF2006F92B0E03B1611F4B0E02B1671F1F101B5
:103E02000081002351F13F922F92120107D82F9087
:103E12003F905F924F923F922F92602E0E94CF1658
:103E22002F903F904F905F90103009F4003011F4C2
:103E3200810115C0F201208181010F5F1F4F5F9246
:103E42004F923F922F92422E18010E94FE162F90FF
:103E52003F904F905F901801CCCF00E010E06F9040
:023E62000895C1
:102D9E00162D062D0150602E112301F1F101008137
:102DAE00003039F0F2011081F1010081011709F4B0
:102DBE000CC0F1011081F2010081002EB0E01B2E3B
:102DCE00012F10E0001911090BC081010F5F1F4F79
:102DDE00180182010F5F1F4F2801DACF00E010E0CB
:022DEE00089546
:102E1E009101F90189010F5F1F4F98010081002375
:102E2E0009F0F7CF890102191309015010400895D6
:002E3E0094
:102DFC00F1010081041511F481010AC0F101810176
:102E0C000F5F1F4F18010081002391F700E010E0C5
:022E1C00089517
:103D8800CF93DF93CDB7DEB72197CDBFDEBF2196A6
:103D9800B0E0B8833F922F92352C242C4CD82F902A
:103DA8003F900881E02FF0E0E20DF31D0081003024
:103DB800B9F00881E02FF0E0E20DF31D00813F9299
:103DC8002F92202E0E9484162F903F9012E009E037
:103DD8000A95F1F71A95E1F708810F5F0883E1CF9B
:0A3DE800CDBFDEBFDF91CF9108953B
:102E3E002F922FC0022D0068202E39D015E107ECFD
:102E4E000A95F1F71A95E1F730C0022D005C006883
:102E5E00202E2DD015E107EC0A95F1F71A95E1F722
:102E6E0024C0022D0C5E0068202E21D015E107EC47
:102E7E000A95F1F71A95E1F718C0022D0C5A006861
:102E8E00202E15D015E107EC0A95F1F71A95E1F70A
:102E9E000CC0B0E03B1671F2B1E03B16B1F2B2E0FD
:0E2EAE003B16F9F2B3E03B1641F32F90089566
:102D0800B2B1B460B2B9022D06950695069506953E
:102D18002F92202EF3D02F90B2B1B260B2B90AEB45
:102D28000A95F1F700000000B2B1BD7FB2B9E6D054
:102D3800B2B1B260B2B90AEB0A95F1F7000000002F
:082D4800B2B1BD7FB2B90895DC
:103D5E00A101252D362D052D162D01501040502E6A
:103D6E00612EB22FB32B39F0FA0140828A010F5F18
:0A3D7E001F4FA801EECF8101089548
:103B62000091CC0410E0005310404AE050E096DA95
:103B72002091CD0430E020533040020F131F0093F8
:103B8200B7041093B8041091CF0410530AE0109FA9
:103B9200102D0091D0040053010F0093B604109130
:103BA200D20410530AE0109F102D0091D304005349
:103BB200010F0093B4041091D50410530AE0109F32
:103BC200102D0091D6040053010F0093B3041091FD
:103BD200D80410530AE0109F102D0091D90400530D
:103BE200010F0093B2041091DB0410530AE0109FFE
:103BF200102D0091DC040053010F0093B1040895CD
:003C0200C2
:10309E009801249F8001259F100D349F100D0895D7
:0030AE0022
:1038E0002F923F924F925F926F927F920091B1041C
:1038F0000F5F0093B1040C3308F484C0B0E0B093C0
:10390000B1040091B2040F5F0093B2040C3308F4C9
:1039100079C0B0E0B093B2040091B3040F5F00939C
:10392000B304083108F46EC0B0E0B093B304009162
:10393000B4040F5F0093B404BFE1B0935304B0E04C
:10394000B09354040091B604023099F42090B70467
:103950003090B804CADBB02FB12B11F00DE101C0DB
:103960000CE100935304B0E007FDBFEFB0935404A3
:1039700017C00091B604043069F00091B604063017
:1039800049F00091B604093029F00091B6040B30DB
:1039900009F006C0BEE1B0935304B0E0B093540404
:1039A0002091B40400915304109154040217B0E024
:1039B0001B07CCF4B1E0B093B4040091B604102F0F
:1039C0001F5F1093B6040CE0011768F4B1E0B093E8
:1039D000B6040091B7041091B8040F5F1F4F009315
:1039E000B7041093B8046090B404B0E07B2E40900C
:1039F000B604B0E05B2E2090B7043090B804EBDA48
:103A00000093B5040091B7041091B8041F930F936D
:103A1000B7E0BF93B5EEBF93B4E0BF93B9EABF93ED
:103A2000A4DAADB7BEB71696ADBFBEBFB1E05B2E90
:103A30004424B9EA2B2EB4E03B2EA6D10091B60463
:103A400010E01F930F93B7E0BF93B9EDBF93B4E0BD
:103A5000BF93BDEABF9389DAADB7BEB71696ADBFC7
:103A6000BEBFB1E05B2EB3E04B2EBDEA2B2EB4E01F
:103A70003B2E8AD10091B40410E01F930F93B7E05E
:103A8000BF93BBEEBF93B5E0BF93B1ECBF936DDACC
:103A9000ADB7BEB71696ADBFBEBFB1E05B2EB6E008
:103AA0004B2EB1EC2B2EB5E03B2E6ED10091B30422
:103AB00010E01F930F93B7E0BF93B3EDBF93B5E052
:103AC000BF93B5ECBF9351DAADB7BEB71696ADBF95
:103AD000BEBFB1E05B2EB9E04B2EB5EC2B2EB5E0AE
:103AE0003B2E52D10091B20410E01F930F93B7E028
:103AF000BF93BFEDBF93B5E0BF93BDEBBF9335DA86
:103B0000ADB7BEB71696ADBFBEBFB1E05B2EBCE091
:103B10004B2EBDEB2B2EB5E03B2E36D10091B104E0
:103B200010E01F930F93B7E0BF93B0EFBF93B5E0E2
:103B3000BF93B9EBBF9319DAADB7BEB71696ADBF59
:103B4000BEBFB1E05B2EBFE04B2EB9EB2B2EB5E034
:103B50003B2E1AD17F906F905F904F903F902F90A7
:023B60000895C6
:1030EA003F922F9244E050E081010E948E088C01A9
:1030FA002F903F90103009F4003079F43F922F92CC
:10310A0044E650E081010E948E088C012F903F9086
:10311A00103009F4003009F00CC040E951E0810197
:10312A000E948E088C01103009F4003011F000E082
:08313A0001C001E010E008955E
:10111C00C801BA0197FB092E07260AD077FD04D027
:10112C000CD006D000201AF4709561957F4F08956D
:10113C00F6F7909581959F4F0895AA1BBB1B51E123
:10114C0007C0AA1FBB1FA617B70710F0A61BB70B2B
:10115C00881F991F5A95A9F780959095BC01CD01D0
:04116C000895089545
:102FD600CF93DF93CDB7DEB72297CDBFDEBF219665
:102FE60003E010E04016510600E00CF401E0002E6C
:102FF600B0E01B2E81010019110918017F926F9212
:103006005F924F923F922F9244E050E00E948E08CA
:103016008B012F903F90020D131D088319833F9259
:103026002F9244E650E081010E948E088B012F907A
:103036003F90288139810801890100191109088307
:10304600198340E951E081010E948E088B014F905F
:103056005F906F907F9028813981A801420F531F9E
:103066008201015010409801220F331F0CE813E033
:10307600F901E00FF11F01911191040F151F060DC3
:10308600171D47E050E00E948E088C012196CDBFA7
:08309600DEBFDF91CF91089528
:102F6A00CF93DF93CDB7DEB72297CDBFDEBF2196D1
:102F7A002F923F924F925F926F927F922E813F8162
:102F8A00FE018E01085F1F4F0E5F1F4F01931193C1
:102F9A008E013F932F9338014884598419010E9466
:102FAA00E0082F913F91A801F801E20FF31FB0E06A
:102FBA00B0838A017F906F905F904F903F902F90DF
:0C2FCA002196CDBFDEBFDF91CF910895AE
:1011C000CF93DF93CDB7DEB7A397CDBFDEBF219618
:1011D000B0E0B98FBA8FF20182010F5F1F4F280173
:1011E00004910A87002311F40C9475160A850532C0
:1011F00071F00A85F101008381010F5F1F4F180113
:10120000098D1A8D0F5F1F4F098F1A8FE4CFB0E041
:10121000BB87BC87B0E0BD87BE8732C00D851E8509
:1012200008600D871E8782010F5F1F4F28013DC098
:101230000D851E8501600D871E8782010F5F1F4F80
:10124000280133C00D851E8502600D871E8782012F
:101250000F5F1F4F280129C00D851E8518600D875F
:101260001E8782010F5F1F4F28011FC00D851E853D
:1012700004600D871E8782010F5F1F4F280115C074
:10128000F20104910D3251F2F2010491003281F227
:10129000F20104910B32B1F2F20104910332E1F256
:1012A000F2010491003311F301C0B7CF0D851E8503
:1012B00001FF05C00D851E850E7F0D871E870D85DC
:1012C0001E8503FF05C00D851E850B7F0D871E87BC
:1012D000F201049110E03F922F92202E44DC2F90D7
:1012E0003F90002309F1B0E0BB87BC870B851C85CC
:1012F0004AE050E025DCF2012491020FB0E01B1F10
:10130000005310400B871C8782010F5F1F4F28017D
:10131000F801049110E03F922F92202E24DC2F90B0
:101320003F90002319F716C0F20104910A3291F49C
:10133000F30121913191F901019111910B871C87E2
:1013400089010E5F1F4FF3010193119382010F5F1B
:101350001F4F2801F20104910E3209F03DC08201B5
:101360000F5F1F4F2801F80104910A3299F4F3012D
:1013700021913191F9010191119108871987890112
:101380000E5F1F4FF3010193119382010F5F1F4FF7
:10139000280121C0B0E0B887B987F201049110E0BC
:1013A0003F922F92202EDFDB2F903F90002399F069
:1013B000088519854AE050E0C3DBF2012491020F51
:1013C000B0E01B1F005310400887198782010F5F90
:1013D0001F4F2801E2CF08C0B0E0B887B9870D855C
:1013E0001E8510610D871E87F20182010F5F1F4F5E
:1013F000280104910A87FEC0098D1A8D0C94771676
:101400000D851E8500610D871E87EECF0D851E851B
:1014100014600D871E872FC10D851E8500620D8704
:101420001E870D851E8511600D871E8724C10D85C1
:101430001E8512600D871E871EC10D851E850064E6
:101440000D871E8718C117C10D851E8500620D8787
:101450001E870D851E8500680D871E870CC1F30150
:1014600001911191F801019111910D8B1E8BF301E6
:10147000019111910E5F1F4FF301019311930D899B
:101480001E89103009F4003021F4BBE0BD8BB4E0BC
:10149000BE8BB0E0BF8BB88F2D893E890F89188D28
:1014A000F801E20FF31F0081002339F00F89188D36
:1014B0000F5F1F4F0F8B188FEFCF08851985B02F47
:1014C000B12B59F0288539850F89188D20173107E0
:1014D00020F4088519850F8B188F2B853C850F8983
:1014E000188D0217130748F40F88188C0B851C857C
:1014F000001911090B871C8703C0B0E0BB87BC87AC
:101500000D851E8503FD19C02B853C850B851C852B
:10151000015010400B871C87B22FB32B71F0F101E3
:10152000B0E2B08381010F5F1F4F1801098D1A8D42
:101530000F5F1F4F098F1A8FE7CF2F89388D0F89C3
:10154000188D015010400F8B188FB22FB32BB1F0B4
:10155000ED89FE890081F101008381010F5F1F4F3A
:1015600018010D891E890F5F1F4F0D8B1E8B098D72
:101570001A8D0F5F1F4F098F1A8FDFCF0D851E85C4
:1015800003FF19C02B853C850B851C85015010403D
:101590000B871C87B22FB32B71F0F101B0E2B0833F
:1015A00081010F5F1F4F1801098D1A8D0F5F1F4FAB
:1015B000098F1A8FE7CF0FCEF30101911191F80136
:1015C00000810A87F301019111910E5F1F4FF30112
:1015D000019311938E01065F1F4F0D8B1E8BB1E09F
:1015E000BF8BB0E0B88F69CF0D851E85006C0D876D
:1015F0001E8741C00A85003009F4FECE0A850C36EC
:1016000009F4FECE0A850C3409F4FACE0A850636B2
:1016100009F4FCCE0A85053409F4FECE0A850536A8
:1016200009F4FFCE0A85073609F401CF0A850F3683
:1016300009F403CF0A85043609F405CF0A85093673
:1016400009F401CF0A85003709F4FECE0A85083572
:1016500009F4FACE0A85083709F4FBCE0A85033768
:1016600009F4FDCE0A85033609F4A6CF0A850537AD
:1016700009F4BACFAFCF0D851E8500701770B02F5B
:10168000B12B09F4BCC70D851E8514FF04C0B6E05C
:10169000B887B0E0B987F30101911191F801019188
:1016A0001191219131910F87188B298B3A8BF3017E
:1016B000019111910C5F1F4FF301019311933F9220
:1016C0002F9240E050E060E070E00F851889298992
:1016D0003A892FDA002800E009F001E02F903F90CE
:1016E0000023A9F00F85188929893A89B0E00B27D2
:1016F000B0E01B27B0E02B27B0E83B270F87188B03
:10170000298B3A8B0D851E8503600D871E87B0E0FF
:10171000BB8BBC8B3F922F920F85188929893A8900
:1017200040E050E060E070E0C4DC002800E009F038
:1017300001E02F903F90002309F48BC0AE014D5E75
:101740005F4FFE013F960191119121913191B7E1D7
:101750003695279517950795BA95D1F710700E57BE
:101760001040FA01019311930B891C89015010401C
:101770000B8B1C8B43E050E0E3D90B8B1C8B7F92CF
:101780006F925F924F923F922F924AE050E0C6DCF8
:101790008B012F903F904F905F906F907F900B8BBD
:1017A0001C8B20E030E00217130734F40B891C89EE
:1017B000015010400B8B1C8B0B8800E000197F92AE
:1017C0006F925F924F923F922F92202ED6D92F90F8
:1017D0003F904F905F906F907F903F922F924F85F8
:1017E000588969897A899BD90D8B1E8B2F8B388FED
:1017F00040E050E060E87FE30D891E892F89388D35
:1018000098D9002800E009F001E02F903F900023D4
:1018100039F00B891C89015010400B8B1C8B19C0AF
:101820003F922F9240E050E060E271E40D891E8902
:101830002F89388D37DC002800E009F001E02F9077
:101840003F90002331F00B891C890F5F1F4F0B8BDA
:101850001C8B2B893C8900E010E0021713071CF059
:10186000B1E0BA8702C00B890A870D851E8510FD7D
:1018700015C00D851E8511FF10C02B893C890CEF0A
:101880001FEF2017310744F02B893C890885198503
:10189000201731070CF401C001C050C30885198519
:1018A000B02FB12B51F00D851E8511FF06C00885A4
:1018B000198501501040088719872885398508E067
:1018C00010E00217130718F4B8E0BA8702C00885C1
:1018D0000A873F922F920F85188929893A8940E01B
:1018E00050E060E070E0E5DB002800E009F001E096
:1018F0002F903F90002309F4B8C07F926F925F92BF
:101900004F923F922F922B8838D9A801B9010F85A9
:10191000188929893A89F8DB0F87188B298B3A8B2C
:101920000A8400E00019202E28D9A801B9010F85EA
:10193000188929893A89E8DB2F903F904F905F9072
:101940006F907F900F87188B298B3A8BB9DB7BDBED
:101950003F922F92A801B9010F85188929893A89E8
:1019600068DB40E050E060E07FE39CDB0028B0E013
:1019700009F0B1E00B2F2F903F90002389F03F92A8
:101980002F920F85188929893A8940E050E060E05C
:101990007FE37EDB2F903F900F87188B298B3A8B4C
:1019A0000F85188929893A898BDB4A8550E04F5F7A
:1019B0005F4FBA01660F771F660F771F49E657E042
:1019C000FB01E40FF51F4591559165917591041741
:1019D000150726073707C0F03F922F920F85188909
:1019E00029893A894DEC5CEC6CEC7DE398D82F901A
:1019F0003F900F87188B298B3A8B0B891C890F5FBF
:101A00001F4F0B8B1C8B31C00F85188929893A8990
:101A100057DB4A85642F70E0660F771F660F771FCC
:101A200049E657E0FB01E40FF51F4591559165919B
:101A300075910417150726073707B8F43F922F92C0
:101A40000F85188929893A8940E050E060E271E405
:101A500066D82F903F900F87188B298B3A8B0B8974
:101A60001C89015010400B8B1C8B0D851E8511FFAE
:101A70006FC00D851E8513FD6BC0288539850AE072
:101A800010E00217130724F4BAE0B887B0E0B98772
:101A90000F85188929893A8913DB0D8B1E8B2F8BB3
:101AA000388F0D891E892F89388DB02FB12BB22B1D
:101AB000B32B49F14AE050E060E070E00D891E89E7
:101AC0002F89388DC3DA8D019F01303029F4203001
:101AD00019F4103009F40030B1F40885198501506B
:101AE0001040088719874AE050E060E070E00D89F7
:101AF0001E892F89388DAADA8B019C010D8B1E8BD4
:101B00002F8B388FCECF188529850A851017B0E026
:101B10002B07F4F408840A8500197F926F925F9274
:101B20004F923F922F92202E28D8A801B9010F85FD
:101B3000188929893A89E8DA2F903F904F905F9071
:101B40006F907F900F87188B298B3A8B08850A87B7
:101B50002885398589010B5F1F4F08010B851C857E
:101B6000001911090B871C87B22FB32B29F40D859F
:101B70001E8513FD01C006C00B851C850150104059
:101B80000B871C870D851E8503701070B02FB12B3D
:101B900031F00B851C85015010400B871C870D858B
:101BA0001E8502FF48C00D851E8501FF17C00D85EB
:101BB0001E8500FF03C0BDE2B88302C0BBE2B8834C
:101BC0000881F101008381010F5F1F4F1801098D0A
:101BD0001A8D0F5F1F4F098F1A8F11C00D851E853B
:101BE00000FF0DC0F101B0E2B08381010F5F1F4F14
:101BF0001801098D1A8D0F5F1F4F098F1A8F2B85C2
:101C00003C8500E010E002171307A4F4F101B0E3F3
:101C1000B08381010F5F1F4F1801098D1A8D0F5F6F
:101C20001F4F098F1A8F0B851C85015010400B87A1
:101C30001C87E5CF4BC00D851E8503FD1BC02B8582
:101C40003C8500E010E002171307A4F4F101B0E2B4
:101C5000B08381010F5F1F4F1801098D1A8D0F5F2F
:101C60001F4F098F1A8F0B851C85015010400B8761
:101C70001C87E5CF0D851E8501FF17C00D851E85CC
:101C800000FF03C0BDE2B98302C0BBE2B983098192
:101C9000F101008381010F5F1F4F1801098D1A8D1B
:101CA0000F5F1F4F098F1A8F11C00D851E8500FF12
:101CB0000DC0F101B0E2B08381010F5F1F4F180129
:101CC000098D1A8D0F5F1F4F098F1A8F0F85188985
:101CD00029893A89F5D90D8B1E8B2F8B388F0A8570
:101CE000202F30E0220F331F220F331F09E617E0A9
:101CF000F901E00FF11F45915591659175910D899D
:101D00001E892F89388DA2D98B019C01005DF101BC
:101D1000008381010F5F1F4F1801098D1A8D0F5F1E
:101D20001F4F098F1A8F08851985B02FB12B29F401
:101D30000D851E8513FD01C060C0F101BEE2B083B8
:101D400081010F5F1F4F1801098D1A8D0F5F1F4F03
:101D5000098F1A8F0A84B0E01B2E08851985001997
:101D60001109088719870A85002371F10A85015036
:101D70000A87202F30E0220F331F220F331F09E67E
:101D800017E0F901E00FF11F4591559165917591AB
:101D90000D891E892F89388D59D98B019C014AE004
:101DA00050E060E070E052D98D019F01005DF101CB
:101DB000008381010F5F1F4F1801098D1A8D0F5F7E
:101DC0001F4F098F1A8FCFCF08851985B02FB12BE0
:101DD000A1F0F101B0E3B08381010F5F1F4F180143
:101DE000098D1A8D0F5F1F4F098F1A8F088519856E
:101DF0000150104008871987E7CF0D851E8505FF24
:101E00000EC0F101B5E4B08381010F5F1F4F1801CF
:101E1000098D1A8D0F5F1F4F098F1A8F0DC0F101A9
:101E2000B5E6B08381010F5F1F4F1801098D1A8D30
:101E30000F5F1F4F098F1A8F2B893C8900E010E03C
:101E400020173107B4F40B881C8800E010E000195B
:101E500011090B8B1C8BF101BDE2B08381010F5F77
:101E60001F4F1801098D1A8D0F5F1F4F098F1A8F91
:101E70000DC0F101BBE2B08381010F5F1F4F18015C
:101E8000098D1A8D0F5F1F4F098F1A8F7F926F92E6
:101E90005F924F923F922F924AE050E00B891C894B
:101EA0003DD98B012F903F90005DF10100838101AE
:101EB0000F5F1F4F1801098D1A8D0F5F1F4F098F7C
:101EC0001A8F3F922F924AE050E00B891C8926D945
:101ED0008C012F903F904F905F906F907F90005DAE
:101EE000F101008381010F5F1F4F1801098D1A8DC9
:101EF0000F5F1F4F098F1A8F0D851E8503FF1DC0B1
:101F00002B853C8500E010E002171307B4F4F101C3
:101F1000B0E2B08381010F5F1F4F1801098D1A8D48
:101F20000F5F1F4F098F1A8F0B851C8501501040C2
:101F30000B871C87B02FB12B51F74DC90D851E851E
:101F400011FFAEC02B893C8900E010E0201731075B
:101F50005CF40B891C890150104008010885198523
:101F600000191109088719870F85188929893A8965
:101F7000A7D80D8B1E8B2F8B388FB1E0BA870A85BF
:101F80000A30F1F00A85202F30E0220F331F220F94
:101F9000331F09E617E0F901E00FF11F4591559154
:101FA000659175910D891E892F89388D0417150744
:101FB0002607370708F404C00A850F5F0A87DFCFBA
:101FC0000A84B0E01B2E08851985001911090887BD
:101FD00019870D891E892F89388D35D83F922F9208
:101FE000A801B9010F85188929893A8922D82F902B
:101FF0003F900F8F18A329A33AA37F926F925F920D
:102000004F923F922F9228840E94BD052F903F90BF
:102010004F905F906F907F904F8D58A169A17AA1EA
:102020003F922F920E948F0540E050E060E07FE3F6
:102030002FD82F903F9044D80D8B1E8B2F8B388F2D
:1020400008851985B02FB12B59F14AE050E060E0C6
:1020500070E00D891E892F89388D0E9426088D0118
:102060009F01303029F4203019F4103009F4003089
:10207000B9F44AE050E060E070E00D891E892F89D4
:10208000388D0E9426088B019C010D8B1E8B2F8B97
:10209000388F088519850150104008871987D0CFDF
:1020A000288539850CE010E0021713078CF03F9269
:1020B0002F9228840E945E074F85588969897A8902
:1020C0000E9448082F903F900F87188B298B3A8BDE
:1020D0003F922F920F85188929893A8940E050E074
:1020E00060E070E00E945908002800E009F001E07B
:1020F0002F903F90002309F46FC00F85188929891C
:102100003A890E946008303029F4203019F41030E8
:1021100009F4003009F060C02B893C8901E010E02F
:10212000021713070CF058C07F926F925F924F9284
:102130003F922F922B880E94BD05A801B9010F85FF
:10214000188929893A890E9484082F903F904F90DE
:102150005F906F907F903F922F924FE550E769E834
:1021600070E40E9499050028B0E009F0B1E00B2F5F
:102170002F903F90002339F00B891C8909501040A3
:102180000B8B1C8B06C00B891C89085010400B8BD5
:102190001C8B7F926F925F924F923F922F922B886F
:1021A0000E94BD05A801B9010F85188929893A89BE
:1021B0000E9484082F903F904F905F906F907F9087
:1021C0000E9460080D8B1E8B2F8B388FB0E0BF876D
:1021D000B88BB98BBA8B23C00F85188929893A89A6
:1021E0000E9460080D8B1E8B2F8B388F0D891E89E6
:1021F0002F89388D0E9423083F922F92A801B901A0
:102200000F85188929893A890E9419082F903F90D3
:102210000F87188B298B3A8BB0E0BB8BBC8BB1E05E
:10222000BA870A850A30F1F00A85202F30E0220FA4
:10223000331F220F331F09E617E0F901E00FF11FEA
:1022400045915591659175910D891E892F89388D1C
:10225000041715072607370708F404C00A850F5F1F
:102260000A87DFCF488559850A85202F30E0240F63
:10227000351F0B891C89020F131F08010B851C8554
:10228000001911090B871C870D851E8513FD06C0DB
:1022900008851985B02FB12B09F406C00B851C8564
:1022A000015010400B871C870D851E850370107030
:1022B000B02FB12B31F00B851C85015010400B87DE
:1022C0001C870D851E8502FF48C00D851E8501FFF8
:1022D00017C00D851E8500FF03C0BDE2BA8302C092
:1022E000BBE2BA830A81F101008381010F5F1F4FB6
:1022F0001801098D1A8D0F5F1F4F098F1A8F11C09A
:102300000D851E8500FF0DC0F101B0E2B083810193
:102310000F5F1F4F1801098D1A8D0F5F1F4F098F17
:102320001A8F2B853C8500E010E002171307A4F4F8
:10233000F101B0E3B08381010F5F1F4F1801098DD8
:102340001A8D0F5F1F4F098F1A8F0B851C85015047
:1023500010400B871C87E5CF4BC00D851E8503FD04
:102360001BC02B853C8500E010E002171307A4F486
:10237000F101B0E2B08381010F5F1F4F1801098D99
:102380001A8D0F5F1F4F098F1A8F0B851C85015007
:1023900010400B871C87E5CF0D851E8501FF17C0F8
:1023A0000D851E8500FF03C0BDE2BB8302C0BBE2FA
:1023B000BB830B81F101008381010F5F1F4F180167
:1023C000098D1A8D0F5F1F4F098F1A8F11C00D8550
:1023D0001E8500FF0DC0F101B0E2B08381010F5FE7
:1023E0001F4F1801098D1A8D0F5F1F4F098F1A8F0C
:1023F0001A850A8501500A87112371F10A85202F59
:1024000030E0220F331F220F331F09E617E0F901D6
:10241000E00FF11F45915591659175910D891E89C8
:102420002F89388D0E9426088B019C014AE050E0DC
:1024300060E070E00E9426088D019F01005DF101BF
:10244000008381010F5F1F4F1801098D1A8D0F5FE7
:102450001F4F098F1A8FCCCF2B893C8900E010E0E9
:1024600002171307A4F4F101B0E3B08381010F5FF9
:102470001F4F1801098D1A8D0F5F1F4F098F1A8F7B
:102480000B891C89015010400B8B1C8BE5CF2885D4
:10249000398508E010E0021713071CF4B8E0BA878A
:1024A00002C008850A870A84B0E01B2E08851985BA
:1024B00000191109088719870A85002329F40D8559
:1024C0001E8513FD01C00DC0F101BEE2B083810184
:1024D0000F5F1F4F1801098D1A8D0F5F1F4F098F56
:1024E0001A8F7F926F925F924F923F922F922A841F
:1024F0000E94BD052F903F904F905F906F907F900E
:102500003F922F924F85588969897A890E948F0559
:102510002F903F900E9460080D8B1E8B2F8B388F61
:102520000A85002381F10A8501500A87202F30E0B7
:10253000220F331F220F331F09E617E0F901E00FC6
:10254000F11F45915591659175910D891E892F89CE
:10255000388D0E9426088B019C014AE050E060E023
:1025600070E00E9426088D019F01005DF10100834B
:1025700081010F5F1F4F1801098D1A8D0F5F1F4FCB
:10258000098F1A8FCDCF08851985B02FB12BA1F0F7
:10259000F101B0E3B08381010F5F1F4F1801098D76
:1025A0001A8D0F5F1F4F098F1A8F088519850150EB
:1025B000104008871987E7CF0D851E8503FF1DC0D2
:1025C0002B853C8500E010E002171307B4F4F101FD
:1025D000B0E2B08381010F5F1F4F1801098D1A8D82
:1025E0000F5F1F4F098F1A8F0B851C8501501040FC
:1025F0000B871C87B02FB12B51F70C94EB080D857E
:102600001E85007C1070103009F4003009F052C0B3
:102610000D851E8504FF15C0F30101911191F8018C
:1026200001911191219131910D8B1E8B2F8B388F40
:10263000F301019111910C5F1F4FF301019311936D
:1026400016C0F30101911191F8010191119120E05F
:1026500017FD2FEF322F0D8B1E8B2F8B388FF30131
:10266000019111910E5F1F4FF301019311934D8959
:102670005E896F89788D00E010E020E030E040173F
:10268000510762077307ACF40D851E8503600D8743
:102690001E870D881E8800E010E0001911090F88C0
:1026A000188C20E030E0200931090D8B1E8B2F8B18
:1026B000388F2CC00D851E8504FF15C0F3010191D4
:1026C0001191F80101911191219131910D8B1E8B86
:1026D0002F8B388FF301019111910C5F1F4FF30184
:1026E0000193119313C0F30101911191F80101912C
:1026F00011910D8B1E8BB0E0BF8BB88FF301019150
:1027000011910E5F1F4FF3010193119308851985F5
:10271000103009F4003091F40D891E892F89388D0D
:10272000303029F4203019F4103009F4003031F43D
:10273000088519850F5F1F4F088719870D85007C55
:10274000802F6CC0B1E0BA870A850A30F1F00A85A3
:10275000202F30E0220F331F220F331F09E617E02E
:10276000F901E00FF11F45915591659175910D8922
:102770001E892F89388D041715072607370708F497
:1027800004C00A850F5F0A87DFCF53C0B1E0BA8764
:102790000A850830F1F00A85202F30E0220F331F20
:1027A000220F331F01E917E0F901E00FF11F4591F6
:1027B0005591659175910D891E892F89388D041762
:1027C00015072607370708F404C00A850F5F0A8734
:1027D000DFCF2FC0B1E0BA870A850C30F1F00A854F
:1027E000202F30E0220F331F220F331F09E317E0A1
:1027F000F901E00FF11F45915591659175910D8992
:102800001E892F89388D041715072607370708F406
:1028100004C00A850F5F0A87DFCF0BC0803009F440
:1028200091CF803C09F48ECF803809F4AFCF80344B
:1028300089F20A852885398510E0021713071CF4F0
:1028400008850A870BC0188529850A851017B0E00E
:102850002B0724F40A850887B0E0B9870B851C850F
:10286000B02FB12B69F00D851E8503701070B02F4D
:10287000B12B31F00B851C85015010400B871C8754
:102880002B853C8508851985021713074CF40884AD
:1028900019840B851C85001911090B871C8703C03F
:1028A000B0E0BB87BC870D851E85047C187018308E
:1028B00009F4003461F40B851C85B02FB12B31F085
:1028C0000B851C85015010400B871C8719C00D8596
:1028D0001E85007C1870183009F4003889F42B85A7
:1028E0003C8502E010E0021713073CF40B851C85C1
:1028F000025010400B871C8703C0B0E0BB87BC8729
:102900000D851E8502FF74C00D851E8501FF17C051
:102910000D851E8500FF03C0BDE2BC8302C0BBE283
:10292000BC830C81F101008381010F5F1F4F1801EF
:10293000098D1A8D0F5F1F4F098F1A8F3DC00D85AE
:102940001E8500FF0EC0F101B0E2B08381010F5F70
:102950001F4F1801098D1A8D0F5F1F4F098F1A8F96
:102960002BC00D851E85007C1870183009F40038C6
:1029700019F5F101B0E3B08381010F5F1F4F18011A
:10298000098D1A8D0F5F1F4F098F1A8F0D851E85B8
:1029900005FF03C0B8E5BD8302C0B8E7BD830D8164
:1029A000F101008381010F5F1F4F1801098D1A8DFE
:1029B0000F5F1F4F098F1A8F0B851C85B02FB12B0E
:1029C000B1F0F101B0E3B08381010F5F1F4F180137
:1029D000098D1A8D0F5F1F4F098F1A8F0B851C856C
:1029E000015010400B871C87B02FB12B51F78CC0C2
:1029F0000B851C85B02FB12BD1F00D851E8503FDF5
:102A000016C0F101B0E2B08381010F5F1F4F1801C2
:102A1000098D1A8D0F5F1F4F098F1A8F0B851C852B
:102A2000015010400B871C87B02FB12B51F70D853B
:102A30001E8501FF17C00D851E8500FF03C0BDE286
:102A4000BE8302C0BBE2BE830E81F101008381011F
:102A50000F5F1F4F1801098D1A8D0F5F1F4F098FD0
:102A60001A8F11C00D851E8500FF0DC0F101B0E267
:102A7000B08381010F5F1F4F1801098D1A8D0F5F01
:102A80001F4F098F1A8F0D851E85007C1870183016
:102A900009F4003471F4F101B0E3B08381010F5FF8
:102AA0001F4F1801098D1A8D0F5F1F4F098F1A8F45
:102AB0002BC00D851E85007C1870183009F4003875
:102AC00019F5F101B0E3B08381010F5F1F4F1801C9
:102AD000098D1A8D0F5F1F4F098F1A8F0D851E8567
:102AE00005FF03C0B8E5BF8302C0B8E7BF830F810D
:102AF000F101008381010F5F1F4F1801098D1A8DAD
:102B00000F5F1F4F098F1A8F288539850A8510E0BE
:102B10000217130774F4F101B0E3B08381010F5F72
:102B20001F4F1801098D1A8D0F5F1F4F098F1A8FC4
:102B3000EBCF288539850885198501501040088715
:102B40001987B22FB32B09F4ADC00D85007C0F8F10
:102B50008FC0088519859801220F331F220F331F5C
:102B600009E617E0F901E00FF11F459155916591D4
:102B700075910D891E892F89388D0E9426088B0139
:102B80009C014AE050E060E070E00E9426088D0160
:102B90009F01005D0A8778C00D851E8505FF26C050
:102BA000088519859801220F331F220F331F01E971
:102BB00017E0F901E00FF11F45915591659175916D
:102BC0000D891E892F89388D0E9426088B019C0152
:102BD000A801B9014F7050706070707001EB17E080
:102BE000F801E40FF51F04910A8725C008851985AF
:102BF0009801220F331F220F331F01E917E0F9015B
:102C0000E00FF11F45915591659175910D891E89D0
:102C10002F89388D0E9426088B019C01A801B901DB
:102C20004F7050706070707002EC17E0F801E40FA4
:102C3000F51F04910A8728C0088519859801220F7D
:102C4000331F220F331F09E317E0F901E00FF11FD3
:102C500045915591659175910D891E892F89388D02
:102C60000E9426088B019C010770005D0A870CC03A
:102C70000F8D003009F46DCF003C09F46ACF0038A5
:102C800009F48ACF0034C1F20A85F1010083810181
:102C90000F5F1F4F1801098D1A8D0F5F1F4F098F8E
:102CA0001A8F47CF0D851E8503FF1DC02B853C85E0
:102CB00000E010E002171307B4F4F101B0E2B083B2
:102CC00081010F5F1F4F1801098D1A8D0F5F1F4F74
:102CD000098F1A8F0B851C85015010400B871C87AC
:102CE000B02FB12B51F70C94EB08098D1A8DA296D9
:0A2CF000CDBFDEBFDF91CF91089544
:100B660009E3021528F0B0E32B1610F001E001C0EE
:040B760000E00895FE
:100B7A00CF93DF93CDB7DEB72497CDBFDEBF2196E3
:100B8A00B0E02B160CF0C9C000E00219202E0E3678
:100B9A000CF46DC02F9244E650E0022D10E027FCC1
:100BAA001FEFB7D2062F2F9010E007FD1FEF0E5E42
:100BBA001F4F9801220F331F220F331F05E017E042
:100BCA00F901E00FF11F05911591259135910883DF
:100BDA0019832A833B832F9244E650E0022D10E0CA
:100BEA0027FC1FEF96D2082F10E007FD1FEF4AE0FF
:100BFA0050E08FD2062F10E007FD1FEF075F1F4F4F
:100C0A009801220F331F220F331F05E017E0F90165
:100C1A00E00FF11F459155916591759108811981F0
:100C2A002A813B8177DF2F90088319832A833B83AC
:100C3A004AE050E0022D10E027FC1FEF6AD2082F8D
:100C4A00202F30E007FD3FEF220F331F220F331F03
:100C5A0005E017E0F901E00FF11F45915591659103
:100C6A007591088119812A813B8154DF1CC10AE0F0
:100C7A0002150CF040C02F924AE050E0022D10E01D
:100C8A0027FC1FEF46D2062F2F9010E007FD1FEF1B
:100C9A00075F1F4F9801220F331F220F331F05E0F2
:100CAA0017E0F901E00FF11F059115912591359192
:100CBA00088319832A833B834AE050E0022D10E01F
:100CCA0027FC1FEF26D2082F202F30E007FD3FEF29
:100CDA00220F331F220F331F05E017E0F901E00F3F
:100CEA00F11F4591559165917591088119812A8164
:100CFA003B8110DFD8C0222D30E027FC3FEF220FC6
:100D0A00331F220F331F05E017E0F901E00FF11F2F
:100D1A000591159125913591C6C0BEE62B160CF4A6
:100D2A006DC02F9244E650E0022D10E027FC1FEF21
:100D3A00F0D1062F2F9010E007FD1FEF0E5E1F4F18
:100D4A009801220F331F220F331F01ED16E0F9011C
:100D5A00E00FF11F059115912591359108831983AB
:100D6A002A833B832F9244E650E0022D10E027FCB1
:100D7A001FEFCFD1082F10E007FD1FEF4AE050E028
:100D8A00C8D1062F10E007FD1FEF075F1F4F98011C
:100D9A00220F331F220F331F01ED16E0F901E00F76
:100DAA00F11F4591559165917591088119812A81A3
:100DBA003B81B0DE2F90088319832A833B834AE064
:100DCA0050E0022D10E027FC1FEFA3D1082F202F9F
:100DDA0030E007FD3FEF220F331F220F331F01EDD3
:100DEA0016E0F901E00FF11F459155916591759152
:100DFA00088119812A813B818DDE55C00AE00215DE
:100E0A000CF040C02F924AE050E0022D10E027FC7F
:100E1A001FEF7FD1062F2F9010E007FD1FEF075F0E
:100E2A001F4F9801220F331F220F331F01ED16E0C7
:100E3A00F901E00FF11F059115912591359108836C
:100E4A0019832A833B834AE050E0022D10E027FCF5
:100E5A001FEF5FD1082F202F30E007FD3FEF220F51
:100E6A00331F220F331F01ED16E0F901E00FF11FC6
:100E7A004591559165917591088119812A813B8126
:100E8A0049DE11C0222D30E027FC3FEF220F331F2D
:100E9A00220F331F01ED16E0F901E00FF11F059152
:100EAA001591259135912396CDBFDEBFDF91CF9164
:020EBA00089599
:100B1E00042E152E262E372E41DF002E112E222EBC
:040B2E00332E0895C5
:1009AA00AEDF81F1E62ED52EC42EB32EA22E912EC5
:1009BA00802E002D112D222D332DA1DF19F16E2548
:1009CA004C0D5D1D40385307F4F441387FEF57074B
:1009DA00FCF088279927AA27BB2770E2B695A79526
:1009EA0097958795379527951795079520F4880D3C
:1009FA00991DAA1DBB1D7A9589F7032F3A2F292F16
:100A0A00182F95DF0AC00FEF102F2FE73FE7FACF15
:0C0A1A000027102F202F302FF5CF08955B
:100908009CDF79F0632F6078220F331F432F5FE756
:10091800451B55275040269530E8232B33279894BC
:0A09280003C04427552766270895F1
:10084200002329F4112319F4222309F433230895F0
:00085200A6
:1009380084DF11F19F938F938EE790E0332351F07A
:10094800369527951795079548175907B4F44F5FBB
:100958005F4FF4CF80959095019622239AF0000F6F
:10096800111F221F481759071CF041505040F5CF5E
:10097800002711272227332708C033270FEF102F0E
:0C0988002FE7322F8F919F914EDF0895D2
:10082E0009D039F041585F4F342F220F3695279556
:04083E00362B0895B8
:100EBC00CF93DF93CDB7DEB72497CDBFDEBF21969E
:100ECC00BEE62B1608F45AC044E6022DA6DD10E04F
:100EDC000E5E1F4F9801220F331F220F331F05E0A8
:100EEC0017E0F901E00FF11F05911591259135914E
:100EFC002F9240E050E060E07FE30BDE2F90088300
:100F0C0019832A833B8344E6022D87DD092F4AE0AF
:100F1C0084DD10E0075F1F4F9801220F331F220F53
:100F2C00331F05E017E0F901E00FF11F45915591D2
:100F3C0065917591088119812A813B812F92E9DD98
:100F4C002F90088319832A833B834AE0022D65DDA9
:100F5C00092F202F30E0220F331F220F331F05E003
:100F6C0017E0F901E00FF11F4591559165917591CD
:100F7C00088119812A813B81CCDD4FC00AE0021522
:100F8C00C0F54AE0022D49DD10E0075F1F4F9801C4
:100F9C00220F331F220F331F05E017E0F901E00F7A
:100FAC00F11F05911591259135912F9240E050E05C
:100FBC0060E07FE3AEDD2F90088319832A833B83A7
:100FCC004AE0022D2ADD092F202F30E0220F331F9B
:100FDC00220F331F05E017E0F901E00FF11F4591D7
:100FEC00559165917591088119812A813B8191DD1B
:100FFC0014C0222D30E0220F331F220F331F05E0C7
:10100C0017E0F901E00FF11F05911591259135912C
:10101C0040E050E060E07FE37CDD2396CDBFDEBF97
:06102C00DF91CF91089551
:100A2600992779E004C0991F941708F0941B001FBA
:080A36007A95C9F700950895B7
:100B40002227002400FF02C0040E251F440F551F5A
:100B50004115510529F0169507951050004091F761
:060B6000122F002D089584
:0E0B3200EEDF1CF40024039401C0002408959B
:0E0B1000042E152E262E372E3DDF00230895CD
:10099400CEDF332332F053DF11F001E003C0002730
:0609A40001C00FEF0895F1
:0609320068948EDF0895B9
:10085200E6DF09F441C0E62ED52EC42EB32EA22E19
:10086200912E802E002D112D222D332DD8DF09F44B
:100872003DC0842F952F8C199D09B9F072F4909583
:10088200809501964C2D5D2D883180F53595279503
:10089200179507950197D1F708C08831E8F4B59408
:1008A200A794979487940197D1F766272EF0080DA5
:1008B200191D2A1D3B1D09C0801A910AA20AB30AFA
:1008C200082D192D2A2D3B2D332312F49FDF60E8CA
:1008D20032D001C0ABDF16C0002D112D222D332DD9
:1008E200D6F7AEDFC1F340E83427F5CF082D192D36
:1008F2002A2D3B2D4C2D5D2D6E2D33235AF786DF8D
:0609020060E8E8CF089553
:0E08200073D021F0662309F0F2DF989408955A
:10080E0000951095209530950F5F1F4F2F4F3F4F3E
:02081E0008953B
:0E10B2002EDD19F00024039401C000240895DF
:0E10A40035DD1CF00024039401C000240895E3
:10110800042E152E262E372E96DC002E112E222E7A
:04111800332E0895D5
:100A3E003F932F931F930F93002D112D222D332DA6
:100A4E005CDF09F44BC0E62ED52EC42EB32EA22E9B
:100A5E00912E802E0F911F912F913F914EDF61F1BC
:100A6E006E254C195D09403853073CF541387FEF30
:100A7E0057077CF180E27724632E522E412E302FC1
:100A8E00222711270027000F111F221F331F441C7E
:100A9E00551C661C771C28F0481859086A087B08F4
:100AAE0004C0480C591C6A1C7B1C0AF001608A9514
:100ABE0051F74150504039DF16C00FEF102F2FE77E
:100ACE003FE76623C9F3B6DEB9F3342D30E834259B
:100ADE00F3CF0027102F202F302FEECF0F900F9037
:080AEE000F900F90EACF08956C
:1010C00023DCF1F05523C2F04F31A8F44731C1F0D1
:1010D00050F44195495E05C03595279517950795BC
:1010E0004A95D1F70DC04751000F111F221F331F22
:1010F0004A95D1F705C03FE7232F132F032F03C0D5
:08110000662309F084DB089569
:06104600689456DD0895D8
:100AF60047E16627552726F0332312F485DE60E8A2
:040B060018DF089557
:10103200042E152E262E372E7BDC002E112E222E6C
:04104200332E0895AC
:10109000042E152E262E372E38DD002E112E222E50
:0410A000332E08954E
:060B0A00E894A2DE08954C
:10104C00C9019A01AB01B801A1E21A2EAA1BBB1B64
:10105C00FD010DC0AA1FBB1FEE1FFF1FA217B30778
:10106C00E407F50720F0A20BB30BE40BF50B661F9E
:10107C00771F881F991F1A9469F760957095809552
:04108C00909508959E
:103898002F923F924F925F9200915504013061F44C
:1038A800B8B1B062B8B9B3E05B2E4424BAE32B2EAA
:1038B800B4E03B2E65D20BC0B8B1BF7DB8B9B3E058
:1038C8005B2E4424B3E42B2EB4E03B2E59D25F90F8
:0838D8004F903F902F900895DE
:10320000CF93DF93CDB7DEB72297CDBFDEBF219638
:103210002F923F924F925F920091B60400939904CF
:10322000B0E0B0939A040091B40400939504B0E028
:10323000B09396040091B30400939704B0E0B09368
:1032400098040091B2040093A704B0E0B093A804DE
:10325000B0E0B0935104B093520400915104109126
:103260005204103009F40C3008F0E6C220915104E9
:10327000309152040091990410919A04201731075B
:1032800009F0CFC2B0E0B0934F04B0935004009166
:103290004F0410915004103009F40F3108F0A0C011
:1032A00020914F04309150040091950410919604A0
:1032B0002017310709F089C000914F041091500484
:1032C000103009F4013070F020914F043091500417
:1032D00005E010E00217130728F0B0E0B0934D04AA
:1032E000B0934E0400914F0410915004103009F433
:1032F000063078F020914F04309150040AE010E03D
:103300000217130730F0B1E0B0934D04B0E0B09372
:103310004E0400914F0410915004103009F40B300A
:1033200078F020914F04309150040FE010E0021724
:10333000130730F0B2E0B0934D04B0E0B0934E0408
:1033400000914F0410915004103009F4003178F0CE
:1033500020914F043091500404E110E0021713074C
:1033600030F0B3E0B0934D04B0E0B0934E04009160
:103370004F0410915004103009F4053178F0209179
:103380004F043091500409E110E00217130730F0A8
:10339000B4E0B0934D04B0E0B0934E0400914F04FC
:1033A00010915004103009F40A3178F020914F0444
:1033B000309150040FE110E00217130730F0B5E030
:1033C000B0934D04B0E0B0934E0400914F041091BF
:1033D00050040F5F1F4F00934F041093500457CFBA
:1033E00000915104109152040150104048E450E003
:1033F00056DE24EE30E0020F131F088319830CE021
:1034000010E040914D0450914E0449DE28813981ED
:10341000F801E20FF31F04910F93B7E0BF93BBEFE6
:10342000BF93B4E0BF93BBE9BF939FDDADB7BEB719
:103430001596ADBFBEBF00915104109152040150CA
:10344000104048E450E02BDE24EE30E0020F131F62
:10345000088319830CE010E040914D0450914E0414
:103460001EDE28813981020F131FF8013196049165
:103470000F93B7E0BF93BEEFBF93B5E0BF93BDEE30
:10348000BF9373DDADB7BEB71596ADBFBEBF00919C
:103490005104109152040150104048E450E0FFDD07
:1034A00024EE30E0020F131F088319830CE010E0B4
:1034B00040914D0450914E04F2DD28813981020F74
:1034C000131FF801339604910F93B7E0BF93B5EF44
:1034D000BF93B5E0BF93B9EFBF9347DDADB7BEB7BC
:1034E0001596ADBFBEBF009151041091520401501A
:1034F000104048E450E0D3DD24EE30E0020F131F0B
:10350000088319830CE010E040914D0450914E0463
:10351000C6DD28813981020F131FF801349604910A
:103520000F93B7E0BF93B8EFBF93B5E0BF93B1EE91
:10353000BF931BDDADB7BEB71596ADBFBEBFBDEE29
:103540004B2EB5E05B2EBBE92B2EB4E03B2EAFDD5E
:10355000B1EE4B2EB5E05B2EB9EF2B2EB5E03B2E36
:10356000A6DD00915104109152040150104048E42E
:1035700050E095DD24EE30E0020F131F088319831D
:103580000CE010E040914D0450914E0488DD2881FC
:103590003981020F131FF801369604910F93B8E09A
:1035A000BF93B7E0BF93B5E0BF93B9ECBF93DDDC49
:1035B000ADB7BEB71596ADBFBEBF00915104109117
:1035C00052040150104048E450E069DD24EE30E040
:1035D000020F131F088319830CE010E040914D0483
:1035E00050914E045CDD28813981020F131FF801D0
:1035F000379604910F93B8E0BF93BAE0BF93B5E05C
:10360000BF93B5EDBF93B1DCADB7BEB71596ADBFF7
:10361000BEBF00915104109152040150104048E483
:1036200050E03DDD24EE30E0020F131F08831983C4
:103630000CE010E040914D0450914E0430DD2881A3
:103640003981020F131FF801399604910F93B8E0E6
:10365000BF93B1E0BF93B6E0BF93B5E0BF9385DC05
:10366000ADB7BEB71596ADBFBEBF00915104109166
:1036700052040150104048E450E011DD24EE30E0E7
:10368000020F131F088319830CE010E040914D04D2
:1036900050914E0404DD28813981020F131FF80177
:1036A0003A9604910F93B8E0BF93B4E0BF93B6E0AD
:1036B000BF93B1E1BF9359DCADB7BEB71596ADBFAF
:1036C000BEBFB5ED4B2EB5E05B2EB9EC2B2EB5E0B1
:1036D0003B2EEDDCB1E14B2EB6E05B2EB5E02B2EA0
:1036E000B6E03B2EE4DCB2E05B2E4424BAE82B2E9D
:1036F000B4E03B2E49D3B2E05B2EB3E04B2EBBE9E6
:103700002B2EB4E03B2E40D3B2E05B2EB5E04B2E27
:10371000B4E82B2EB4E03B2E37D3B2E05B2EB6E0FC
:103720004B2EB9EF2B2EB5E03B2E2ED3B2E05B2E05
:10373000BAE04B2EB6E82B2EB4E03B2E25D3B2E0F8
:103740005B2EBEE04B2EB9EC2B2EB5E03B2E1CD3EE
:10375000B2E05B2EB0E14B2EBBE52B2EB4E03B2E4E
:1037600013D3B2E05B2EB1E14B2EB5E02B2EB6E0C9
:103770003B2E0AD3B9EF4B2EB5E05B2EBBE92B2EC7
:10378000B4E03B2E94DCBBE92B2EB4E03B2ED9DC1D
:1037900000935D0410935E04B5E04B2EB6E05B2E03
:1037A000B9EC2B2EB5E03B2E82DCB9EC2B2EB5E02C
:1037B0003B2EC7DC0093590410935A04BDEB4B2EEB
:1037C000B5E05B2EB5EC2B2EB5E03B2E70DC009106
:1037D00097041091980444E650E061DC2091A7041E
:1037E0003091A804200F311F2093560430935704C2
:1037F00000915D0410915E04201731077CF0209148
:103800005604309157040091590410915A0420171E
:10381000310724F4B1E0B093550403C0B0E0B09395
:10382000550400915104109152040F5F1F4F0093F3
:1038300051041093520411CD5F904F903F902F9000
:0C3840002196CDBFDEBFDF91CF9108952F
:1030AE00A101FA010081002329F08A010F5F1F4F51
:1030BE00A801F7CF9A018A010F5F1F4FA801F201F5
:1030CE0082010F5F1F4F28010081F9010083F90172
:0C30DE000081002309F0EECF810108956D
:10314200F1010081402F50E0503009F4403229F063
:10315200503009F4493009F005C081010F5F1F4F5B
:103162001801EECF20E030E060E070E0503009F46A
:103172004D3249F48B010F5F1F4FA80181010F5F90
:103182001F4F180109C0503009F44B3221F481015C
:103192000F5F1F4F1801AB01F1010081602F70E03A
:1031A2003F922F92262E0E94B3052F903F9000232C
:1031B200A1F05F934F9389014AE050E00E94A0057D
:1031C2004F915F919B0120533040020F131F9801D2
:1031D20081010F5F1F4F1801DFCFB42FB52B29F0EC
:0E31E20000E010E0021B130B01C089010895EC
:0A31F00005900D920197E1F7089594
:104AB200A0E0B2E0E4E4F4E08DE892E00E94F818AD
:024AC200089555
:104A0E000F931F932F933F93EF93FF93BF93BFB7D4
:104A1E00BF93CF93DF93CDB7DEB72297CDBFDEBF67
:104A2E00219600918503003089F4B1E0B09385039F
:104A3E00B0E0B4BDB4E0B5BDB0916E00B160B0935E
:104A4E006E00B0E0B0938303B093840329EB34E09F
:104A5E000091830310918403020F131F088319839F
:104A6E000E94FD1818812981E12FF22F00830091F9
:104A7E008303109184030F5F1F4F009383031093E2
:104A8E008403B0E0B6BD2196CDBFDEBFDF91CF91DE
:104A9E00BF91BFBFBF91FF91EF913F912F911F919A
:044AAE000F911895B7
:0631FA000091CE000895D3
:10418200EF93FF93BF93BFB7BF93B0E0B4BDB0E06E
:10419200B5BDB0916E00BE7FB0936E00B0E0B0933B
:1041A2008503B0E0B0938303B0938403B1E0B0938E
:0E41B2008203BF91BFBFBF91FF91EF9118959F
:1040D0000F931F93EF93FF93BF93BFB7BF93B1E0CD
:1040E000B0937F0310918B0300918B030F5F0093BC
:1040F0008B03193098F1B0E0B0938B03B1E0B0932B
:104100007E031091A5030091A5030F5F0093A50303
:10411000143020F1B0E0B093A503B1E0B093810377
:104120001091A4030091A4030F5F0093A403113026
:10413000A8F0B0E0B093A403B1E0B093580410919C
:104140008A0300918A030F5F00938A03193030F0CD
:10415000B0E0B0938A03B1E0B0938003BF91BFBFDA
:0C416000BF91FF91EF911F910F911895F6
:10416C00EF93FF93BF93BFB7BF93BF91BFBFBF91F7
:06417C00FF91EF91189580
:0607E500253032752F00E3
:0607D900253032752F00EF
:0507EB0025303275000D
:0607D300253032753A00EA
:0607DF00253032753A00DE
:0507F000253032750008
:0307FB0025630073
:1000E40031373A34392C30383A30390031373A35EF
:1000F400342C30383A30390031373A35382C3038EE
:100104003A30380031383A30362C30383A3036000C
:1001140031383A31312C30383A30330031383A31D1
:10012400372C30373A35380031383A32362C3037BC
:100134003A35320031383A33362C30373A343700D6
:1001440031383A33392C30373A34310031383A3493
:10015400352C30373A33350031383A35312C303795
:100164003A32370031383A35362C30373A323100AA
:1001740031393A30322C30373A31340031393A306F
:10018400362C30373A30370031393A31332C303667
:100194003A35370031393A31392C30363A3439006E
:1001A40031393A32352C30363A33390031393A3331
:1001B400302C30363A32390031393A33372C303634
:1001C4003A32300031393A34312C30363A31340055
:1001D40031393A34382C30363A30340031393A3502
:1001E400332C30353A35370031393A35392C3035FE
:1001F4003A34390032303A30322C30353A34310026
:1002040032303A31302C30353A33350032303A31ED
:10021400352C30353A32390032303A32302C3035E0
:100224003A32330031343A32382C31343A323900EC
:1002340031303A31302C31343A34350031313A33BB
:10024400342C31343A30300032303A33392C3035B2
:100254003A30380032303A34332C30353A303500C5
:1002640032303A34362C30353A30350032303A3484
:10027400382C30353A30350032303A34382C303579
:100284003A30360032303A34302C30353A30370098
:1002940032303A34382C30353A31300032303A3456
:1002A400372C30353A31330032303A34352C30354E
:1002B4003A31360032303A34312C30353A3231006A
:1002C40032303A33372C30353A32350032303A3323
:1002D400312C30353A33310032303A32352C303526
:1002E4003A33360032303A31392C30353A34310031
:1002F40032303A31322C30353A34360032303A30FA
:10030400352C30353A35320031393A35372C3035E1
:100314003A35370031393A34392C30363A303200F4
:1003240031393A34352C30363A30380031393A33B1
:10033400312C30363A31330031393A32322C3036BE
:100344003A31390031393A31342C30363A323400CA
:1003540031393A30352C30363A32390031383A3581
:10036400362C30363A33340031383A34372C303680
:100374003A34300031383A33392C30363A34360096
:1003840031383A33312C30363A35320031383A325A
:10039400332C30363A35370031383A31362C303751
:1003A4003A30320031383A30372C30373A31300075
:1003B40031383A30312C30373A31360031373A352A
:1003C400352C30373A32320031373A35302C303729
:1003D4003A32390031373A34362C30373A33350033
:1003E40031373A34322C30373A34300031373A34FA
:1003F400302C30373A34360031373A33382C3037F2
:100404003A35300031373A33382C30373A35360004
:1004140031373A33382C30383A30300031373A33C8
:10042400392C30383A30330031373A34312C3038C3
:100434003A30360031373A34342C30383A303900D7
:0307FE0025630070
:0307F50025630079
:0307F80025630076
:0308070025630066
:03080A0025630063
:030801002563006C
:0308040025630069
:10076900010000000A00000064000000E803000026
:1007790010270000A086010040420F0080969800D3
:0807890000E1F50500CA9A3BEE
:100791000100000010000000000100000010000036
:1007A1000000010000001000000000010000001026
:100739000100000008000000400000000002000065
:1007490000100000008000000000040000002000EC
:100759000000000100000008000000400000000047
:1007B1003031323334353637383941424344454696
:0107C1000037
:1007C20030313233343536373839616263646566C5
:0107D2000026
:100705000000803FCDCCCC3D0AD7233C6F12833A05
:1007150017B7D138ACC52737BD37863595BFD63322
:1007250077CC2B325F708930FFE6DB2E08E53C1E67
:040735006042A20D6F
:1006D1000000803F000020410000C84200007A4431
:1006E10000401C460050C347002474498096184BB3
:1006F10020BCBE4C286B6E4EF9021550EC78AD60F3
:04070100CAF249717E
:0C04440041542B434D47463D310D0A004A
:0104500000AB
:1004510041542B434D4746204F4B20666F756E64C8
:01046100009A
:030462004F4B00FD
:1004650041542B434F50533F204F4B206E6F742008
:06047500666F756E640065
:0B047B0041542B434F50533F0D0A002B
:010486000075
:1004870041542B434F50533F204F4B20666F756E9F
:020497006400FF
:030499004F4B00C6
:01049C00005F
:0F049D0041542B4350494E3F204552524F52007D
:0704AC002B43434C4B3A00C7
:0B04B30041542B43434C4B3F0D0A000B
:0F04BE0041542B4350494E3F2052454144590071
:0104CD00002E
:1004CE0041542B434D4746204F4B206E6F74206690
:0504DE006F756E640063
:0604E3005245414459009E
:0B04E90041542B4350494E3F0D0A00C8
:1004F40041542B43535120302C30206E6F742066AE
:050504006F756E64003C
:030509004F4B0055
:06050C004154490D0A00F4
:10051200415449204F4B206E6F7420466F756E64B4
:0105220000D8
:0D052300415449204F4B20466F756E640017
:0105300000CA
:030531004F4B002D
:07053400415445310D0A009E
:10053B0041544531204F4B206E6F7420466F756EC2
:02054B0064004A
:0E054D0041544531204F4B20466F756E6400BF
:09055B0041542B4353510D0A00D9
:010564000096
:1005650041542B43535120302C3020666F756E64F7
:010575000085
:0A0576002B4353513A20302C300083
:1005800041542B43524547204F4B206E6F742066D9
:050590006F756E6400B0
:0C05950041542B435245473D310D0A00F4
:0105A1000059
:1005A20041542B43524547204F4B20666F756E6472
:0105B2000048
:0305B3004F4B00AB
:0C05B60041542B43434C4B3F204F4B0063
:0105C2000038
:0105C3000037
:0105C4000036
:0105C5000035
:0105C6000034
:0205C700000032
:0105C9000031
:0105CA000030
:0105CB00002F
:0105CC00002E
:0105CD00002D
:0105CE00002C
:0105CF00002B
:1005D0000000030002000500000003000500010008
:0805E000040006000200040003
:0105E8000012
:0105E9000011
:0105EA000010
:1005EB0041542B434C54533D31206E6F74204F4B71
:0105FB0000FF
:0305FC004F4B0062
:0705FF00415426570D0A00CC
:0D06060041542B434C54533D31204F4B00C9
:0106130000E6
:1006140041542B43434C4B3F206E6F74204F4B008F
:030624004F4B0039
:0C06270041542B434C54533D310D0A004C
:1006330041542B43434C4B3F206E6F74204F4B0070
:0C06430041542B43434C4B3F204F4B00D5
:07064F00286E756C6C290098
:070656002B43434C4B3A001B
:0C065D0041542657206E6F74204F4B0054
:0806690041542657204F4B00BD
:0B06710041542B43434C4B3F0D0A004B
:01067C00007D
:01067D00007C
:09067E0052656C6179204F6E0099
:0A06870052656C6179204F66660031
:02069100000067
:02069300000065
:02069500000063
:02069700000061
:010699000060
:02069A0000005E
:01069C00005D
:02069D0000005B
:02069F003A001F
:0206A100000057
:0C06A3004154204F4B20466F756E6400E0
:1006AF004154204F4B206E6F7420466F756E64005F
:0306BF004F4B009E
:0106C2000037
:0506C30041540D0A0086
:0206C8003A00F6
:0406CA004F66660011
:0306CE004F6E006C
:00000001FF
